:100000000C9435000C945D000C945D000C945D0024
:100010000C945D000C945D000C945D000C945D00EC
:100020000C945D000C945D000C945D000C945D00DC
:100030000C945D000C945D000C945D000C945D00CC
:100040000C94E2010C945D000C9452020C942C026E
:100050000C945D000C945D000C945D000C945D00AC
:100060000C945D000C945D00040411241FBECFEFBE
:10007000D8E0DEBFCDBF11E0A0E0B1E0EAE4FCE0F3
:1000800002C005900D92A033B107D9F721E0A0E39B
:10009000B1E001C01D92AA3DB207E1F710E0C5E34F
:1000A000D0E004C02197FE010E941D06C433D10791
:1000B000C9F70E9484020C9423060C9400003FB7F9
:1000C000F8948091390190913A01A0913B01B0914F
:1000D0003C0126B5A89B05C02F3F19F00196A11D34
:1000E000B11D3FBFBA2FA92F982F8827BC01CD0182
:1000F000620F711D811D911D42E0660F771F881FE1
:10010000991F4A95D1F70895AF92BF92CF92DF928F
:10011000EF92FF920F931F93CF93DF936C017B01BC
:100120008B01040F151FEB015E01AE18BF08C0174D
:10013000D10759F06991D601ED91FC910190F081C0
:10014000E02DC6010995892B79F7C501DF91CF9183
:100150001F910F91FF90EF90DF90CF90BF90AF90E5
:100160000895FC01538D448D252F30E0842F90E0BD
:10017000821B930B541710F0CF96089501970895A2
:10018000FC01918D828D981761F0A28DAE0FBF2F6B
:10019000B11D5D968C91928D9F5F9F73928F90E0C1
:1001A00008958FEF9FEF0895FC01918D828D981730
:1001B00031F0828DE80FF11D858D90E008958FEF6D
:1001C0009FEF0895FC01918D228D892F90E0805C36
:1001D0009F4F821B91098F73992708958DE391E0BA
:1001E0000E94E20021E0892B09F420E0822F08958B
:1001F00080E090E0892B29F00E94EE0081110C94A0
:1002000000000895FC01A48DA80FB92FB11DA35AB9
:10021000BF4F2C91848D90E001968F739927848F26
:10022000A689B7892C93A089B1898C918370806449
:100230008C93938D848D981306C00288F389E02DEA
:1002400080818F7D80830895EF92FF920F931F939B
:10025000CF93DF93EC0181E0888F9B8D8C8D981379
:100260001AC0E889F989808185FF15C09FB7F89485
:10027000EE89FF896083E889F989808183708064D1
:1002800080839FBF81E090E0DF91CF911F910F911C
:10029000FF90EF900895F62E0B8D10E00F5F1F4F2B
:1002A0000F731127E02E8C8D8E110CC00FB607FC3A
:1002B000FACFE889F989808185FFF5CFCE010E94C8
:1002C0000201F1CFEB8DEC0FFD2FF11DE35AFF4F33
:1002D000F0829FB7F8940B8FEA89FB898081806256
:1002E000CFCFCF93DF93EC01888D8823B9F0AA8913
:1002F000BB89E889F9898C9185FD03C0808186FDE1
:100300000DC00FB607FCF7CF8C9185FFF2CF80812F
:1003100085FFEDCFCE010E940201E9CFDF91CF91A1
:100320000895FC0101900020E9F73197AF01481BC7
:10033000590BBC018DE391E00C9484008F929F9245
:10034000AF92BF920F931F93CF93DF93CDB7DEB7DA
:10035000A1970FB6F894DEBF0FBECDBF19A24230F1
:1003600008F44AE08E010F5D1F4F842E912CB12CB2
:10037000A12CA50194010E94FB05E62FB901CA0139
:10038000EA30F4F4E05DD801EE938D01232B242BA9
:10039000252B79F790E080E0109719F0CD010E94AD
:1003A0009101A1960FB6F894DEBF0FBECDBFDF91CD
:1003B000CF911F910F91BF90AF909F908F90089514
:1003C000E95CE1CF1F920F920FB60F9211242F9389
:1003D0003F938F939F93AF93BF93809135019091FB
:1003E0003601A0913701B09138013091340123E0FA
:1003F000230F2D3758F50196A11DB11D209334010F
:100400008093350190933601A0933701B093380162
:100410008091390190913A01A0913B01B0913C014A
:100420000196A11DB11D8093390190933A01A093CB
:100430003B01B0933C01BF91AF919F918F913F9150
:100440002F910F900FBE0F901F90189526E8230F45
:100450000296A11DB11DD2CF1F920F920FB60F921F
:1004600011242F933F934F935F936F937F938F93B9
:100470009F93AF93BF93EF93FF938DE391E00E941F
:100480000201FF91EF91BF91AF919F918F917F9169
:100490006F915F914F913F912F910F900FBE0F90F1
:1004A0001F9018951F920F920FB60F9211242F9341
:1004B0008F939F93EF93FF93E0914D01F0914E0145
:1004C0008081E0915301F091540182FD1BC0908125
:1004D000809156018F5F8F7320915701821741F0F1
:1004E000E0915601F0E0E35CFE4F958F809356015A
:1004F000FF91EF919F918F912F910F900FBE0F90D1
:100500001F9018958081F4CF789484B5826084BD63
:1005100084B5816084BD85B5826085BD85B5816007
:1005200085BD80916E00816080936E001092810085
:100530008091810082608093810080918100816040
:100540008093810080918000816080938000809101
:10055000B10084608093B1008091B000816080938D
:10056000B00080917A00846080937A0080917A0054
:10057000826080937A0080917A00816080937A0013
:1005800080917A00806880937A001092C100E09197
:100590004D01F0914E0182E08083E0914901F0919C
:1005A0004A011082E0914B01F0914C018FEC808365
:1005B00010925501E0915101F091520186E0808343
:1005C000E0914F01F0915001808180618083E09142
:1005D0004F01F0915001808188608083E0914F014C
:1005E000F0915001808180688083E0914F01F0910B
:1005F000500180818F7D808310E4C0E0D0E01093B3
:100600007C0080917A00806480937A0080917A00E7
:1006100086FDFCCF6091780070917900072E000C68
:10062000880B990B0E94D40421E531E346EF5EE389
:100630000E948905609330017093310180933201EB
:100640009093330182E191E00E949101C0903001CA
:10065000D0903101E0903201F0903301A701960172
:10066000C701B6010E94F6058823E1F18EE191E011
:100670000E9491018AE291E00E9491018DE291E055
:100680000E9491010E945F004B015C0188EEC82E20
:1006900083E0D82EE12CF12C0E945F0068197909C3
:1006A0008A099B09683E734081059105A8F321E002
:1006B000C21AD108E108F10888EE880E83E0981E7E
:1006C000A11CB11CC114D104E104F10429F7209745
:1006D00009F495CF0E94EE00882309F490CF0E9480
:1006E00000008DCF46015701E894B7F82FEF3FEF98
:1006F0004FE75FE7C501B4010E94F60581110DC007
:100700002FEF3FEF4FE75FE7C501B4010E949E0462
:1007100018161CF482E291E0ABCF2FEF3FEF4FE7CA
:100720005FE4C701B6010E94840518161CF486E236
:1007300091E09ECF2FEF3FEF4FE75FECC701B6018F
:100740000E949E0487FDF3CF20E030E0A901C7019D
:10075000B6010E949E0487FF09C06DE28DE391E01F
:100760000E942401F7FAF094F7F8F0942AE037EDAC
:1007700043EA5BE3C701B6010E9432044B015C010E
:100780000E94A3046B017C010E94D2049B01AC0176
:10079000C501B4010E9431044B015C014AE0C7016C
:1007A000B6010E949E016EE28DE391E00E94240159
:1007B00020E030E040E251E4C501B4010E94890527
:1007C0004B015C010E94A3046B01F12CE12C4AE077
:1007D000C701B6010E949E01C701B6010E94D20462
:1007E0009B01AC01C501B4010E94310420E030E05E
:1007F00040E251E40E9489050E94A30490E080E059
:100800004AE00E949E0136CFEDE3F1E013821282AE
:1008100088EE93E0A0E0B0E084839583A683B7835D
:1008200084E091E09183808385EC90E095878487D4
:1008300084EC90E09787868780EC90E0918B808BAA
:1008400081EC90E0938B828B82EC90E0958B848B93
:1008500086EC90E0978B868B118E128E138E148E01
:1008600008955058BB27AA270E9449040C944A05B2
:100870000E943C0538F00E94430520F039F49F3F68
:1008800019F426F40C9439050EF4E095E7FB0C946A
:100890003305E92F0E945B0558F3BA176207730707
:1008A0008407950720F079F4A6F50C947D050EF4E5
:1008B000E0950B2EBA2FA02D0B01B90190010C0170
:1008C000CA01A0011124FF27591B99F0593F50F488
:1008D000503E68F11A16F040A22F232F342F4427E0
:1008E000585FF3CF469537952795A795F0405395D8
:1008F000C9F77EF41F16BA0B620B730B840BBAF0A8
:100900009150A1F0FF0FBB1F661F771F881FC2F712
:100910000EC0BA0F621F731F841F48F48795779526
:100920006795B795F7959E3F08F0B0CF9395880FE0
:1009300008F09927EE0F9795879508950E940F0567
:1009400008F481E008950E94630588F09F5798F0AD
:10095000B92F9927B751B0F0E1F0660F771F881FC4
:10096000991F1AF0BA95C9F714C0B13091F00E94DE
:100970007D05B1E008950C947D05672F782F8827B9
:10098000B85F39F0B93FCCF3869577956795B39505
:10099000D9F73EF490958095709561957F4F8F4F74
:1009A0009F4F0895E89409C097FB3EF49095809579
:1009B000709561957F4F8F4F9F4F9923A9F0F92F25
:1009C00096E9BB279395F695879577956795B795A3
:1009D000F111F8CFFAF4BB0F11F460FF1BC06F5F89
:1009E0007F4F8F4F9F4F16C0882311F096E911C09B
:1009F000772321F09EE8872F762F05C0662371F0BC
:100A000096E8862F70E060E02AF09A95660F771FCF
:100A1000881FDAF7880F9695879597F90895990FAB
:100A20000008550FAA0BE0E8FEEF16161706E807B8
:100A3000F907C0F012161306E407F50798F0621BD9
:100A4000730B840B950B39F40A2661F0232B242BAE
:100A5000252B21F408950A2609F4A140A6958FEFCD
:100A6000811D811D089597F99F6780E870E060E01F
:100A700008959FEF80EC089500240A941616170637
:100A800018060906089500240A941216130614067F
:100A900005060895092E0394000C11F4882352F0E2
:100AA000BB0F40F4BF2B11F460FF04C06F5F7F4F9A
:100AB0008F4F9F4F089557FD9058440F551F59F081
:100AC0005F3F71F04795880F97FB991F61F09F3F3B
:100AD00079F087950895121613061406551FF2CF64
:100AE0004695F1DF08C0161617061806991FF1CFB4
:100AF00086957105610508940895E894BB276627DB
:100B00007727CB0197F908950E940F0508F48FEF1E
:100B100008950E949C050C944A050E943C0538F0FB
:100B20000E94430520F0952311F00C9433050C949A
:100B3000390511240C947E050E945B0570F3959F86
:100B4000C1F3950F50E0551F629FF001729FBB27C4
:100B5000F00DB11D639FAA27F00DB11DAA1F649F60
:100B60006627B00DA11D661F829F2227B00DA11D13
:100B7000621F739FB00DA11D621F839FA00D611D99
:100B8000221F749F3327A00D611D231F849F600DBA
:100B9000211D822F762F6A2F11249F5750409AF0E3
:100BA000F1F088234AF0EE0FFF1FBB1F661F771F6F
:100BB000881F91505040A9F79E3F510580F00C943A
:100BC00033050C947E055F3FE4F3983ED4F386959D
:100BD00077956795B795F795E7959F5FC1F7FE2BDA
:100BE000880F911D9695879597F908950E940F0596
:100BF000880B990B0895A1E21A2EAA1BBB1BFD01BD
:100C00000DC0AA1FBB1FEE1FFF1FA217B307E407EB
:100C1000F50720F0A21BB30BE40BF50B661F771F43
:100C2000881F991F1A9469F7609570958095909523
:100C30009B01AC01BD01CF010895EE0FFF1F059090
:0A0C4000F491E02D0994F894FFCF21
:100C4A000000000024018400B1007101E200C0002C
:100C5A00D40054656D7065726174757265006E6159
:100C6A006E00696E66006F7666002563000D0A00E5
:00000001FF
